:020000040000FA
:1000000002B81002B6547F0402D45302BC378E2BC0
:100010008F2CEFF58AE52BF58C222202BCB3781ADF
:100020007C017D017BFF7A9479FB7E007F02124C7C
:10003000C3781C7C017D017BFF7A9479FD7E007F73
:1000400002124CC3781E7C017D017BFF7A9479FFFC
:100050007E007F02124CC390011AE04408F0782021
:100060007C017D017B017A01791A7E007F02124CAE
:10007000C39001227405F012852990011AE054F70B
:10008000F078207C017D017B017A01791A7E007F66
:1000900002124CC39001227405F01285297F017E63
:1000A0000012DF8F90011AE04408F078207C017D77
:1000B000017B017A01791A7E007F02124CC3900104
:1000C000227405F012852978207C017D017B017A5C
:1000D00001791C7E007F02124CC39001227406F04D
:1000E00012852978207C017D017B017A01791E7EB1
:0F00F000007F02124CC39001227407F002852991
:1001270090034B7413F0900349E0602B90017E74A9
:10013700FFF0A3749CF0A37462F0A37402F0A3749D
:100147000DF07BFF7A9C794A1252BC7BFF7A9C792F
:10015700FD1252BC7FDD2290034BE0702B90017E95
:1001670074FFF0A3749CF0A37462F0A37402F0A36D
:100177007412F07BFF7A9C794A1252BC7BFF7A9DFE
:1001870079141252BC7FE02212DE02E490013FF0A4
:10019700A3F012A4EE900141EFF0701D900140E032
:1001A70004F0700690013FE004F0C3900140E09432
:1001B700FF90013FE094FF40D990013FE0B4FF3347
:1001C700A3E0B4FF2E12D15A90017E74FFF0A374FE
:1001D7009CF0A37462F0A37402F0A3741EF07BFF7B
:1001E7007A9C794A1252BC7BFF7A9D79291252BCBC
:1001F7007FDC22900141E0FF228036805E02028C84
:100207000202B60202E102030C0203370203620292
:10021700038D0203B80203E302040E020439020449
:100227006402048F0204BAC0377402C0E0C082C0FF
:1002370083C2AF753700E510640060127510009037
:10024700F3AA7440F0E4A3F090F1FD7481F0D2AF0B
:1002570022C0377402C0E0C082C083C2AF753702C4
:10026700E5106401601275100190F3AA7480F0E440
:10027700A3F090F1FD7481F0D2AF22C0377402C0B1
:10028700E0C082C083C2AF753704E5106402601214
:1002970075100290F3AA74C0F0E4A3F090F1FD7416
:1002A70081F0D2AF22C0377402C0E0C082C083C2DF
:1002B700AF753707E5106403601375100390F3AA51
:1002C7007400F07401A3F090F1FD7481F0D2AF22B5
:1002D700C0377402C0E0C082C083C2AF75370AE579
:1002E700106404601375100490F3AA7440F074014D
:1002F700A3F090F1FD7481F0D2AF22C0377402C031
:10030700E0C082C083C2AF75370DE5106405601386
:1003170075100590F3AA7480F07401A3F090F1FDB5
:100327007481F0D2AF22C0377402C0E0C082C083AC
:10033700C2AF753710E5106406601375100690F3A9
:10034700AA74C0F07401A3F090F1FD7481F0D2AFEC
:1003570022C0377402C0E0C082C083C2AF753713B2
:10036700E5106407601375100790F3AA7400F07422
:1003770002A3F090F1FD7481F0D2AF22C03774026E
:10038700C0E0C082C083C2AF753716E5106408604D
:100397001375100890F3AA7440F07402A3F090F15B
:1003A700FD7481F0D2AF22C0377402C0E0C082C0B2
:1003B70083C2AF753719E51064096013751009908A
:1003C700F3AA7480F07402A3F090F1FD7481F0D267
:1003D700AF22C0377402C0E0C082C083C2AF753796
:1003E7001CE510640A601375100A90F3AA74C0F034
:1003F7007402A3F090F1FD7481F0D2AF22C037747C
:1004070002C0E0C082C083C2AF75371FE510640B1E
:10041700601375100B90F3AA7400F07403A3F090A7
:10042700F1FD7481F0D2AF22C0377402C0E0C08200
:10043700C083C2AF753722E510640C601375100CCA
:1004470090F3AA7440F07403A3F090F1FD7481F067
:10045700D2AF22C0377402C0E0C082C083C2AF757A
:100467003725E510640D601375100D90F3AA74809D
:10047700F07403A3F090F1FD7481F0D2AF22C0377E
:100487007402C0E0C082C083C2AF753728E510642C
:100497000E601375100E90F3AA74C0F07403A3F0E6
:1004A70090F1FD7481F0D2AF22C0377402C0E0C072
:1004B70082C083C2AF75372BE510640F60137510C8
:1004C7000F90F3AA7400F07404A3F090F1FD748107
:1004D700F0D2AF2290C000415890C4B1415800906B
:1004E7000145EBF0A3EAF0A3E9F0785A7C017D011E
:1004F7007BFF7A3979DD7E007F04124CC3785E7CFE
:10050700017D017BFF7A3979E17E007F04124CC3BC
:1005170078627C017D017BFF7A3979E57E007F0473
:10052700124CC378667C017D017BFF7A3979E97EBD
:10053700007F04124CC3786A7C017D017BFF7A3906
:1005470079ED7E007F04124CC3786E7C017D017BC0
:10055700FF7A3979F17E007F04124CC378727C01EF
:100567007D017BFF7A3979F57E007F04124CC378D1
:10057700767C017D017BFF7A3979F97E007F041251
:100587004CC3900145E0FBA3E0FAA3E0F990000417
:10059700124D0290017AF0E4900149F090032FE0A8
:1005A70075F004A4FF900149E0C39FE5F06480F86B
:1005B7007480985034900145E0FBA3E0FAA3E0244F
:1005C70014F9E43AFA900149E0FF7C0029F9EC3A82
:1005D700FA124CE9FE744A2FF582E43401F583EEF2
:1005E700F0900149E004F080B37BFF7A2E79CA903E
:1005F700014AE090017EF090014BE090017FF0907E
:10060700014CE0900180F090014DE0900181F012E3
:1006170052BCE4900149F090032FE075F004A4FF69
:10062700900149E0FDC39FE5F06480F8748098402D
:1006370003022CC1744A2DF582E43401F583E0FFEF
:10064700C394054003022CB8EF1460191470030219
:10065700101514700302199F14700302215F2404FC
:100667006003022B8612DBCF900149E0FE1313547F
:100677003F2427F582E43403F583E0FFEE54032497
:1006870008FD90017AE07BA0B401027BDD12DBE676
:10069700900149E0FE1313543F2427F582E4340305
:1006A700F583E0FFEE5403240CFD90017AE054013A
:1006B7002422F582E43402F583E0FB12DBE69001A5
:1006C70049E0FE1313543F2427F582E43403F583EE
:1006D700E0FFEE54032410FD90017AE05401242634
:1006E700F582E43402F583E0FB12DBE6900149E092
:1006F700FE1313543F2427F582E43403F583E0FF08
:10070700EE54032414FD90017AE07B8012DBE6901F
:100717000149E0FE1313543F2427F582E43403F51F
:1007270083E0FFEE54032418FD90017AE07B181252
:10073700DBE6900149E0FE1313543F2427F582E4DA
:100747003403F583E0FFEE540325E025E02421FD83
:1007570090017AE07B92B401027B1212DBE69001F2
:1007670049E0FE1313543F2427F582E43403F5834D
:10077700E0FFEE540325E025E02423FD7B4312DB55
:10078700E6900149E0FE1313543F2427F582E43431
:1007970003F583E0FFEE54032430FD90017AE07BFC
:1007A70011B401027B1212DBE6900149E0FE13133C
:1007B700543F2427F582E43403F583E0FFEE540326
:1007C700243CFD90017AE054012440F582E4340290
:1007D700F583E0FB12DBE6900149E0FE1313543F7B
:1007E7002427F582E43403F583E0FFEE5403244025
:1007F700FD90017AE054012428F582E43402F58360
:10080700E0FB12DBE6900149E0FE1313543F242777
:10081700F582E43403F583E0FFEE54032444FD90AE
:10082700017AE07B0012DBE6900149E0FE131354E6
:100837003F2427F582E43403F583E0FFEE540324D5
:1008470048FD90017AE07B0012DBE6900149E0FE6B
:100857001313543F2427F582E43403F583E0FFEEB6
:100867005403244CFD90017AE07B00B401027B0421
:1008770012DBE6900149E0FE1313543F2427F5826B
:10088700E43403F583E0FFEE54032450FD90017A2E
:10089700E07B00B401027B0412DBE6900149E0FE35
:1008A700244AF582E43401F583E07023EE131354F0
:1008B7003F2427F582E43403F583E0FFEE54032455
:1008C70058FD90017AE07BC0B401027B60802090E4
:1008D7000149E0FE1313543F2427F582E43403F55E
:1008E70083E0FFEE54032458FD90017AE07B7012F9
:1008F700DBE6900149E0FE1313543F2427F582E419
:100907003403F583E0FFEE5403245CFD90017AE0A5
:100917007B1E12DBE6900149E0FE1313543F2427A8
:10092700F582E43403F583E0FFEE54032464FD907D
:10093700017AE07B08B401027B0D12DBE6900149E6
:10094700E0FE1313543F2427F582E43403F583E0D4
:10095700FFEE54032481FD90017AE07B0012DBE671
:10096700900149E0FE1313543F2427F582E4340332
:10097700F583E0FFEE54032485FD90017AE07B11B7
:1009870012DBE6900149E0FF244AF582E43401F5E1
:1009970083E06401707490017EF0A3EFF090017A18
:1009A700E07BFFB401067A2F792080047A2F79241F
:1009B700900180EBF0A3EAF0A3E9F07BFF7A2F79AF
:1009C700071252BC900149E0FE1313543F2427F548
:1009D70082E43403F583E0FFEE54032489FD90019C
:1009E7007AE07B1112DBE6900149E0FE1313543FD6
:1009F7002427F582E43403F583E0FFEE5403248EC5
:100A0700FD90017AE07B00020A92900149E0FF9095
:100A1700017EE4F0A3EFF090017AE07BFFB40106DA
:100A27007A2F792080047A2F7924900180EBF0A324
:100A3700EAF0A3E9F07BFF7A2F79291252BC9001E3
:100A470049E0FE1313543F2427F582E43403F5836A
:100A5700E0FFEE54032489FD90017AE07B00B401A6
:100A6700027B1012DBE6900149E0FE1313543F248A
:100A770027F582E43403F583E0FFEE5403248EFD6B
:100A870090017AE07B07B401027B0812DBE6900154
:100A970049E0FE1313543F2427F582E43403F5831A
:100AA700E0FFEE54032493FDE4FB12DBE6900149DB
:100AB700E0FE1313543F2427F582E43403F583E063
:100AC700FFEE54032498FD90017AE07B04B4010201
:100AD7007B0712DBE6900149E0FE1313543F2427FE
:100AE700F582E43403F583E0FFEE540324A0FD9080
:100AF700017AE07B1512DBE6900149E0FE131354FF
:100B07003F2427F582E43403F583E0FFEE54032402
:100B1700A4FD90017AE07B07B401027B0512DBE6B6
:100B2700900149E01313543F2427F582E43403F579
:100B370083E0FF7B017DFF12DBE6900149E0FE13B6
:100B470013543F2427F582E43403F583E0FFEE5482
:100B5700032488FD90017AE07B0612DBE6900149C9
:100B6700E0FE1313543F2427F582E43403F583E0B2
:100B7700FFEE5403248CFD90017AE07BA612DBE69E
:100B8700900149E01313543F2427F582E43403F519
:100B970083E0FF7DD712DB7F900149E0FE5403FD20
:100BA7007401A805088002C333D8FCF45FFBEE1379
:100BB70013543F2427F582E43403F583E0FF7DD700
:100BC70012DBE6900149E01313543F2427F582E432
:100BD7003403F583E0FF7B027DFF12DBE612DB6265
:100BE700900148EFF0A3E0FE1313543F2427F5824A
:100BF700E43403F583E0FFEE5403C3132416FD909A
:100C07000149E0FE7C0F20E0027CF0900148E05CA7
:100C1700FCEE540125E025E0FEE4A806088002C3A7
:100C270033D8FC4CFB12DBE6900149E0FE1313546A
:100C37003F2427F582E43403F583E0FFEE540324D1
:100C470005FB7DFF12DBE6900149E01313543F24B7
:100C570027F582E43403F583E0FF7BFF7A3879C90F
:100C670012CFD4900149E01313543F2427F582E4AF
:100C77003403F583E0FF7B407D0612DBE6900149F4
:100C8700E01313543F2427F582E43403F583E0FF90
:100C970090017AE07B00B401027B137D0F12DBE643
:100CA700900149E01313543F2427F582E43403F5F8
:100CB70083E0FF7B087D1B12DBE6900149E01313FD
:100CC700543F2427F582E43403F583E0FF7B887DD6
:100CD7002012DBE6900149E01313543F2427F582E5
:100CE700E43403F583E0FF90017AE07B01B401026D
:100CF7007B007D1E12DBE6900149E01313543F246D
:100D070027F582E43403F583E0FF90017AE07B0C5A
:100D1700B401027B087D2C12DBE6900149E0131336
:100D2700543F2427F582E43403F583E0FF90017AEA
:100D3700E07B15B401027B177D3512DBE690014994
:100D4700E01313543F2427F582E43403F583E0FFCF
:100D5700E4FB7D6212DBE6900149E01313543F2464
:100D670027F582E43403F583E0FF90017AE07B30D6
:100D7700B401027B107DA112DBE6900149E0131359
:100D8700543F2427F582E43403F583E0FF90017A8A
:100D9700E07B0CB401027B0E7DA212DBE6900149D9
:100DA700E01313543F2427F582E43403F583E0FF6F
:100DB70090017AE07B50B401027B707DA312DBE6E1
:100DC700900149E01313543F2427F582E43403F5D7
:100DD70083E0FF90017AE07B20B401027B407DA88D
:100DE70012DBE6900149E01313543F2427F582E410
:100DF7003403F583E0FF90017AE07B20B401027BA6
:100E0700107DAC12DBE6900149E01313543F242711
:100E1700F582E43403F583E0FF90017AE07B20B4A8
:100E270001027B087DAD12DBE6900149E013135404
:100E37003F2427F582E43403F583E0FF90017AE04D
:100E47007B14B401027B047DAE12DBE6900149E01E
:100E57001313543F2427F582E43403F583E0FF900E
:100E6700017AE07B00B401027B0D7DC012DBE690C6
:100E77000149E01313543F2427F582E43403F58333
:100E8700E0FF90017AE07BDAB401027BCA7D25128C
:100E9700DBE6900149E01313543F2427F582E4343D
:100EA70003F583E0FF7B097DFF12DBE6900149E054
:100EB700FE1313543F2427F582E43403F583E0FF40
:100EC700EE54032440FD7B6012DBE6900149E013FA
:100ED70013543F2427F582E43403F583E0FF7D4470
:100EE70012DB7F900149E0FE5403FD7401A8050859
:100EF7008002C333D8FCF45FFBEE1313543F24275F
:100F0700F582E43403F583E0FF7D4412DBE69001CC
:100F170049E0FE1313543F2427F582E43403F58395
:100F2700E0FFEE540325E025E02450FD90017AE030
:100F3700B4010590016A800390015AE0FEFB12DBC1
:100F4700E6900149E0FE1313543F2427F582E43469
:100F570003F583E0FFEE540325E025E02451FD90DF
:100F6700017AE0B4010590016B800390015BE0FE1C
:100F7700FB12DBE6900149E0FE1313543F2427F5EB
:100F870082E43403F583E0FFEE540325E025E024F3
:100F970052FD90017AE0B4010590016C8003900145
:100FA7005CE0FEFB12DBE6900149E0FE1313543FC1
:100FB7002427F582E43403F583E0FFEE540325E0AC
:100FC70025E02453FD90017AE0B4010590016D807E
:100FD7000390015DE0FEFB12DBE6900149E0FF9024
:100FE700017EE4F0A3EFF090017AE07BFFB4010605
:100FF7007A2F792080047A2F7924900180EBF0A34F
:10100700EAF0A3E9F07BFF7A2F7942022B9412DBF7
:10101700CF900149E0FE1313543F2427F582E434AF
:1010270003F583E0FFEE54032408FD90017AE07B8B
:101037006012DBE6900149E0FE1313543F2427F5C5
:1010470082E43403F583E0FFEE5403240CFD9001A2
:101057007AE054012424F582E43402F583E0FB129C
:10106700DBE6900149E0FE1313543F2427F582E4A1
:101077003403F583E0FFEE54032410FD90017AE07A
:101087005401242AF582E43402F583E0FB12DBE6FF
:10109700900149E0FE1313543F2427F582E43403FB
:1010A700F583E0FFEE54032414FD90017AE07B9072
:1010B70012DBE6900149E0FE1313543F2427F58223
:1010C700E43403F583E0FFEE54032418FD90017A1E
:1010D700E07B3012DBE6900149E0FE1313543F2416
:1010E70027F582E43403F583E0FFEE540325E0257A
:1010F700E02421FD7B9212DBE6900149E0FE131309
:10110700543F2427F582E43403F583E0FFEE5403CC
:1011170025E025E02422FD7B0A12DBE6900149E069
:10112700FE1313543F2427F582E43403F583E0FFCD
:10113700EE540325E025E02423FD7B4312DBE690F4
:101147000149E0FE1313543F2427F582E43403F5E5
:1011570083E0FFEE54032430FD7B1512DBE690019C
:1011670049E0FE1313543F2427F582E43403F58343
:10117700E0FFEE5403243CFD90017AE05401244241
:10118700F582E43402F583E0FB12DBE6900149E0E7
:10119700FE1313543F2427F582E43403F583E0FF5D
:1011A700EE54032440FD90017AE054012435F58282
:1011B700E43402F583E0FB12DBE6900149E0FE131D
:1011C70013543F2427F582E43403F583E0FFEE54FC
:1011D700032444FD90017AE07B3012DBE69001495D
:1011E700E0FE1313543F2427F582E43403F583E02C
:1011F700FFEE54032448FD90017AE07B3012DBE6D2
:10120700900149E0FE1313543F2427F582E4340389
:10121700F583E0FFEE5403244CFD90017AE07B0454
:1012270012DBE6900149E0FE1313543F2427F582B1
:10123700E43403F583E0FFEE54032450FD90017A74
:10124700E07B0412DBE6900149E0FF90017AE0FDC4
:1012570012BE1B900149E0FE1313543F2427F58269
:10126700E43403F583E0FFEE54032458FD90017A3C
:10127700E07B90B401027B8012DBE6900149E0FE3F
:101287001313543F2427F582E43403F583E0FFEE7C
:101297005403245CFD90017AE07B9E12DBE690010B
:1012A70049E0FE1313543F2427F582E43403F58302
:1012B700E0FFEE54032464FD90017AE07BB2B401B1
:1012C700027BB112DBE6900149E0FE1313543F2481
:1012D70027F582E43403F583E0FFEE54032481FD10
:1012E70090017AE07B06B401027B0712DBE69001EE
:1012F70049E0FE1313543F2427F582E43403F583B2
:10130700E0FFEE54032485FD90017AE07B0012DBB9
:10131700E6900149E0FE1313543F2427F582E43495
:1013270003F583E0FFEE54032489FD90017AE07B07
:101337001012DBE6900149E0FE1313543F2427F512
:1013470082E43403F583E0FFEE5403248EFD7B0D26
:1013570012DBE6900149E0FE1313543F2427F58280
:10136700E43403F583E0FFEE54032493FDE4FB121A
:10137700DBE6900149E0FE1313543F2427F582E48E
:101387003403F583E0FFEE54032498FD90017AE0DF
:101397007B04B401027B0712DBE6900149E0FE13F0
:1013A70013543F2427F582E43403F583E0FFEE541A
:1013B7000324A0FD7B1512DBE6900149E0FE131321
:1013C700543F2427F582E43403F583E0FFEE54030A
:1013D70024A4FD90017AE07B01B401027B0012DBBB
:1013E700E6900149E01313543F2427F582E43403C0
:1013F700F583E0FF7B017DFF12DBE6900149E0FE0C
:101407001313543F2427F582E43403F583E0FFEEFA
:1014170054032488FD90017AE07B0A12DBE69001F1
:1014270049E0FE1313543F2427F582E43403F58380
:10143700E0FFEE5403248CFD90017AE07B0A12DB77
:10144700E6900149E01313543F2427F582E434035F
:10145700F583E0FF90017AE07B557D9E12DBE690F5
:101467000149E01313543F2427F582E43403F5833D
:10147700E0FF7DD712DB7F900149E0FE5403FD7446
:1014870001A805088002C333D8FC4FFBEE131354A1
:101497003F2427F582E43403F583E0FF7DD712DB91
:1014A700E6900149E01313543F2427F582E43403FF
:1014B700F583E0FF7B027DFF12DBE612DB62900122
:1014C70048EFF0A3E0FE1313543F2427F582E434DA
:1014D70003F583E0FFEE5403C3132416FD9001497F
:1014E700E0FE7C0F20E0027CF0900148E05CFCEE1F
:1014F700540125E025E0FE7405A806088002C333E1
:10150700D8FC4CFB12DBE6900149E0FE1313543F75
:101517002427F582E43403F583E0FFEE5403240522
:10152700FB7DFF12DBE612CFBB900149E01313549A
:101537003F2427F582E43403F583E0FF7B0D7D012B
:1015470012DBE6900149E01313543F2427F582E4A8
:101557003403F583E0FF7B407D0612DBE69001490B
:10156700E01313543F2427F582E43403F583E0FFA7
:1015770090017AE07B01B401027B007D1E12DBE65D
:10158700900149E01313543F2427F582E43403F50F
:1015970083E0FF90017AE07B15B401027B177D356C
:1015A70012DBE6900149E01313543F2427F582E448
:1015B7003403F583E0FF90017AE07B01B401027BFD
:1015C700007D7A12DBE6900149E01313543F24278C
:1015D700F582E43403F583E0FF90017AE07B81B480
:1015E70001027B007D7B12DBE6900149E013135477
:1015F7003F2427F582E43403F583E0FF90017AE086
:101607007B30B401027B107DA112DBE6900149E03B
:101617001313543F2427F582E43403F583E0FF9046
:10162700017AE07B0CB401027B0E7DA212DBE6900F
:101637000149E01313543F2427F582E43403F5836B
:10164700E0FF90017AE07B50B401027B707DA3122A
:10165700DBE6900149E01313543F2427F582E43475
:1016670003F583E0FF90017AE07B20B401027B4021
:101677007DA812DBE6900149E01313543F2427F5B8
:1016870082E43403F583E0FF90017AE07B20B40124
:10169700027B107DAC12DBE6900149E01313543F47
:1016A7002427F582E43403F583E0FF90017AE07B99
:1016B70020B401027B087DAD12DBE6900149E013FF
:1016C70013543F2427F582E43403F583E0FF9001A8
:1016D7007AE07B14B401027B047DAE12DBE6900155
:1016E70049E01313543F2427F582E43403F583E0DC
:1016F700FF7BDB7D2512DBE6900149E01313543FA6
:101707002427F582E43403F583E0FF7B787D2B12F1
:10171700DBE6900149E01313543F2427F582E434B4
:1017270003F583E0FFE4FB7D5912DBE6900149E016
:101737001313543F2427F582E43403F583E0FF7B3A
:10174700137D5812DBE6900149E01313543F242719
:10175700F582E43403F583E0FF7B167DC012DBE6F8
:10176700900149E01313543F2427F582E43403F52D
:1017770083E0FF7B137DC112DBE6900149E0131381
:10178700543F2427F582E43403F583E0FF7B047D8F
:10179700C812DBE6900149E01313543F2427F58272
:1017A700E43403F583E0FF7B0C7DD812DBE6900180
:1017B70049E01313543F2427F582E43403F583E00B
:1017C700FF7B0E7DD912DBE6900149E01313543FEE
:1017D7002427F582E43403F583E0FF7B127DDA12D8
:1017E700DBE6900149E01313543F2427F582E434E4
:1017F70003F583E0FF7B147DDB12DBE6900149E014
:101807001313543F2427F582E43403F583E0FF7B69
:101817001C7DDC12DBE6900149E01313543F2427BB
:10182700F582E43403F583E0FF7B2C7DDD12DBE6F4
:10183700900149E01313543F2427F582E43403F55C
:1018470083E0FF7B347DDE12DBE6900149E0131372
:10185700543F2427F582E43403F583E0FF7B097DB9
:10186700FF12DBE6900149E0FE1313543F2427F5EE
:1018770082E43403F583E0FFEE54032440FDE4FBE8
:1018870012DBE6900149E01313543F2427F582E465
:101897003403F583E0FFE4FB7D4412DBE690014966
:1018A700E0FE1313543F2427F582E43403F583E065
:1018B700FFEE540325E025E02450FD90017AE0B4C3
:1018C700010590016E800390015EE0FEFB12DBE6EE
:1018D700900149E0FE1313543F2427F582E43403B3
:1018E700F583E0FFEE540325E025E02451FD900148
:1018F7007AE0B4010590016F800390015FE0FEFB81
:1019070012DBE6900149E0FE1313543F2427F582CA
:10191700E43403F583E0FFEE540325E025E0245289
:10192700FD90017AE0B40105900170800390016099
:10193700E0FEFB12DBE6900149E0FE1313543F245F
:1019470027F582E43403F583E0FFEE540325E02511
:10195700E02453FD90017AE0B40105900171800302
:10196700900161E0FEFB12DBE6900149E090017E09
:10197700F090017AE07BFFB401067A2F792080048A
:101987007A2F792490017FEBF0A3EAF0A3E9F07BAB
:10199700FF7A2F795A022B9412DBCF900149E0FE90
:1019A7001313543F2427F582E43403F583E0FFEE55
:1019B70054032408FD90017AE07B6012DBE6900176
:1019C70049E0FE1313543F2427F582E43403F583DB
:1019D700E0FFEE5403240CFD90017AE05401242427
:1019E700F582E43402F583E0FB12DBE6900149E07F
:1019F700FE1313543F2427F582E43403F583E0FFF5
:101A0700EE54032410FD90017AE05401242AF58254
:101A1700E43402F583E0FB12DBE6900149E0FE13B4
:101A270013543F2427F582E43403F583E0FFEE5493
:101A3700032414FD90017AE07B9012DBE6900149C4
:101A4700E0FE1313543F2427F582E43403F583E0C3
:101A5700FFEE54032418FD90017AE07B0012DBE6C9
:101A6700900149E0FE1313543F2427F582E4340321
:101A7700F583E0FFEE540325E025E02421FD7B926A
:101A870012DBE6900149E0FE1313543F2427F58249
:101A9700E43403F583E0FFEE540325E025E0242238
:101AA700FD7B0A12DBE6900149E0FE1313543F2445
:101AB70027F582E43403F583E0FFEE540325E025A0
:101AC700E02423FD90017AE07B41B401027B4312BD
:101AD700DBE6900149E0FE1313543F2427F582E427
:101AE7003403F583E0FFEE54032430FD90017AE0E0
:101AF7007B1212DBE6900149E0FE1313543F2427C3
:101B0700F582E43403F583E0FFEE5403243CFD90B3
:101B1700017AE054012442F582E43402F583E0FBC4
:101B270012DBE6900149E0FE1313543F2427F582A8
:101B3700E43403F583E0FFEE54032440FD90017A7B
:101B4700E054012435F582E43402F583E0FB12DB2F
:101B5700E6900149E0FE1313543F2427F582E4344D
:101B670003F583E0FFEE54032444FD90017AE07B04
:101B77003012DBE6900149E0FE1313543F2427F5AA
:101B870082E43403F583E0FFEE54032448FD90011B
:101B97007AE07B3012DBE6900149E0FE1313543FF5
:101BA7002427F582E43403F583E0FFEE5403244C45
:101BB700FD90017AE07B0412DBE6900149E0FE1319
:101BC70013543F2427F582E43403F583E0FFEE54F2
:101BD700032450FD90017AE07B0412DBE690014973
:101BE700E0FE1313543F2427F582E43403F583E022
:101BF700FFEE54032458FD90017AE07BB0B4010254
:101C07007BC012DBE6900149E0FE1313543F242703
:101C1700F582E43403F583E0FFEE5403245CFD9082
:101C2700017AE07B9E12DBE6900149E0FE13135434
:101C37003F2427F582E43403F583E0FFEE540324C1
:101C470064FD90017AE07BB2B401027BB112DBE65E
:101C5700900149E0FE1313543F2427F582E434032F
:101C6700F583E0FFEE54032481FD90017AE07B04C5
:101C7700B401027B0512DBE6900149E0FE13135421
:101C87003F2427F582E43403F583E0FFEE54032471
:101C970085FD90017AE07B0012DBE6900149E0FECA
:101CA7001313543F2427F582E43403F583E0FFEE52
:101CB70054032489FD90017AE07B1012DBE6900142
:101CC70049E0FE1313543F2427F582E43403F583D8
:101CD700E0FFEE5403248EFD90017AE07B09B40106
:101CE700027B0B12DBE6900149E0FE1313543F24FD
:101CF70027F582E43403F583E0FFEE54032493FDD4
:101D0700E4FB12DBE6900149E0FE1313543F24275E
:101D1700F582E43403F583E0FFEE54032498FD9045
:101D2700017AE07B04B401027B0712DBE6900149EC
:101D3700E0FE1313543F2427F582E43403F583E0D0
:101D4700FFEE540324A0FD90017AE07B0012DBE64E
:101D5700900149E0FE1313543F2427F582E434032E
:101D6700F583E0FFEE540324A4FD90017AE07B01A4
:101D7700B401027B0012DBE6900149E01313543FE4
:101D87002427F582E43403F583E0FF7B017DFF120E
:101D9700DBE6900149E0FE1313543F2427F582E464
:101DA7003403F583E0FFEE54032488FD90017AE0C5
:101DB7007B4D12DBE6900149E0FE1313543F2427C5
:101DC700F582E43403F583E0FFEE5403248CFD90A1
:101DD700017AE07B8412DBE6900330E0B48425903F
:101DE7000149E0FE1313543F2427F582E43403F539
:101DF70083E0FFEE540324CCF582E43402F583E05C
:101E070024CC803D900330E06485703B900149E02D
:101E1700FE24CCF582E43402F583E0F46029EE1366
:101E270013543F2427F582E43403F583E0FFEE548F
:101E37000324CCF582E43402F583E0540125E02441
:101E4700CDFD7B6612DBE6900149E01313543F2476
:101E570027F582E43403F583E0FF7DD712DB7F901B
:101E67000149E0FE5403FD7401A805088002C3334D
:101E7700D8FC4FFBEE1313543F2427F582E43403B9
:101E8700F583E0FF7DD712DBE6900149E013135499
:101E97003F2427F582E43403F583E0FF7B027DFFCF
:101EA70012DBE612DB62900148EFF0A3E0FE1313AA
:101EB700543F2427F582E43403F583E0FFEE54030F
:101EC700C3132416FD900149E0FE7C0F20E0027C3D
:101ED700F0900148E05CFCEE540125E025E0FE743B
:101EE70005A806088002C333D8FC4CFB12DBE6903A
:101EF7000149E0FE1313543F2427F582E43403F528
:101F070083E0FFEE54032405FB7DFF12DBE612CFCF
:101F1700BB900149E01313543F2427F582E43403AF
:101F2700F583E0FF7B0C7D0112DBE6900149E013AE
:101F370013543F2427F582E43403F583E0FF7B4005
:101F47007D0612DBE6900149E01313543F2427F581
:101F570082E43403F583E0FF7B787D2B12DBE69088
:101F67000149E01313543F2427F582E43403F58332
:101F7700E0FF7B017D5912DBE6900149E013135422
:101F87003F2427F582E43403F583E0FF90017AE0EC
:101F97007B1AB401027B2A7D2412DBE6900149E01B
:101FA7001313543F2427F582E43403F583E0FF90AD
:101FB700017AE07B86B401027B847D5012DBE690D8
:101FC7000149E01313543F2427F582E43403F583D2
:101FD700E0FF90017AE07BE4B401027B007DBB1255
:101FE700DBE6900149E01313543F2427F582E434DC
:101FF70003F583E0FF7B097DFF12DBE6900149E0F3
:10200700FE1313543F2427F582E43403F583E0FFDE
:10201700EE54032440FDE4FB12DBE6900149E01394
:1020270013543F2427F582E43403F583E0FF7D440E
:1020370012DB7F900149E0FE5403FD7401A80508F7
:102047008002C333D8FC4FFBEE1313543F2427F50C
:1020570082E43403F583E0FF7D4412DBE690014917
:10206700E0FE1313543F2427F582E43403F583E09D
:10207700FFEE540325E025E02450FD90017AE0B4FB
:1020870001059001728003900162E0FEFB12DBE61E
:10209700900149E0FE1313543F2427F582E43403EB
:1020A700F583E0FFEE540325E025E02451FD900180
:1020B7007AE0B401059001738003900163E0FEFBB1
:1020C70012DBE6900149E0FE1313543F2427F58203
:1020D700E43403F583E0FFEE540325E025E02452C2
:1020E700FD90017AE0B401059001748003900164CA
:1020F700E0FEFB12DBE6900149E0FE1313543F2498
:1021070027F582E43403F583E0FFEE540325E02549
:10211700E02453FD90017AE0B40105900175800336
:10212700900165E0FEFB12DBE6900149E090017E3D
:10213700F090017AE07BFFB401067A2F79208004C2
:102147007A2F792490017FEBF0A3EAF0A3E9F07BE3
:10215700FF7A2F7974022B9412DBCF900149E0FEAE
:102167001313543F2427F582E43403F583E0FFEE8D
:1021770054032408FD90017AE07B6012DBE69001AE
:1021870049E0FE1313543F2427F582E43403F58313
:10219700E0FFEE5403240CFD90017AE0540124A3E0
:1021A700F582E43402F583E0FB12DBE6900149E0B7
:1021B700FE1313543F2427F582E43403F583E0FF2D
:1021C700EE54032410FD90017AE0540124ADF5820A
:1021D700E43402F583E0FB12DBE6900149E0FE13ED
:1021E70013543F2427F582E43403F583E0FFEE54CC
:1021F700032414FD90017AE07B9012DBE6900149FD
:10220700E0FE1313543F2427F582E43403F583E0FB
:10221700FFEE54032418FD90017AE07B0012DBE601
:10222700900149E0FE1313543F2427F582E4340359
:10223700F583E0FFEE540325E025E02421FD7B92A2
:1022470012DBE6900149E0FE1313543F2427F58281
:10225700E43403F583E0FFEE540325E025E0242270
:10226700FD7B0B12DBE6900149E0FE1313543F247C
:1022770027F582E43403F583E0FFEE540325E025D8
:10228700E02423FD7B4312DBE6900149E0FE1313B4
:10229700543F2427F582E43403F583E0FFEE54032B
:1022A7002430FD7B1512DBE6900149E0FE13135441
:1022B7003F2427F582E43403F583E0FFEE5403243B
:1022C7003CFD90017AE0540124C1F582E43402F523
:1022D70083E0FB12DBE6900149E0FE1313543F2431
:1022E70027F582E43403F583E0FFEE54032440FD31
:1022F70090017AE0540124AFF582E43402F583E0DB
:10230700FB12DBE6900149E0FE1313543F2427F547
:1023170082E43403F583E0FFEE54032444FD900187
:102327007AE07B0012DBE6900149E0FE1313543F8D
:102337002427F582E43403F583E0FFEE54032448B1
:10234700FD90017AE07B0012DBE6900149E0FE1385
:1023570013543F2427F582E43403F583E0FFEE545A
:1023670003244CFD90017AE07B0012DBE6900149E3
:10237700E0FE1313543F2427F582E43403F583E08A
:10238700FFEE54032450FD90017AE07B0012DBE658
:10239700900149E01313543F2427F582E43403F5F1
:1023A70083E0FF90017AE07B00B401027BF07D546B
:1023B70012DBE6900149E0FE1313543F2427F58210
:1023C700E43403F583E0FFEE54032458FD90017ACB
:1023D700E07B57B401027B7812DBE6900149E0FE0F
:1023E7001313543F2427F582E43403F583E0FFEE0B
:1023F7005403245CFD90017AE07B9E12DBE690019A
:1024070049E0FE1313543F2427F582E43403F58390
:10241700E0FFEE54032464FD90017AE07B8DB40164
:10242700027BBF12DBE6900149E0FE1313543F2401
:1024370027F582E43403F583E0FFEE54032481FD9E
:1024470090017AE07B02B401027B0312DBE6900184
:1024570049E0FE1313543F2427F582E43403F58340
:10246700E0FFEE54032485FD90017AE07B0012DB48
:10247700E6900149E0FE1313543F2427F582E43424
:1024870003F583E0FFEE54032489FD90017AE07B96
:102497001012DBE6900149E0FE1313543F2427F5A1
:1024A70082E43403F583E0FFEE5403248EFD9001AC
:1024B7007AE07B09B401027B0A12DBE6900149E06E
:1024C700FE1313543F2427F582E43403F583E0FF1A
:1024D700EE54032493FDE4FB12DBE6900149E0FE92
:1024E7001313543F2427F582E43403F583E0FFEE0A
:1024F70054032498FD90017AE07B04B401027B0722
:1025070012DBE6900149E0FE1313543F2427F582BE
:10251700E43403F583E0FFEE540324A0FD7B15129A
:10252700DBE6900149E0FE1313543F2427F582E4CC
:102537003403F583E0FFEE540324A4FD90017AE011
:102547007B01B401027B0012DBE6900149E0131323
:10255700543F2427F582E43403F583E0FF7B017DB4
:10256700FF12DBE6900149E0FE1313543F2427F5E1
:1025770082E43403F583E0FFEE54032488FD9001E1
:102587007AE07B0012DBE6900149E0FE1313543F2B
:102597002427F582E43403F583E0FFEE5403248C0B
:1025A700FD90017AE07B4212DBE6900149E01313CC
:1025B700543F2427F582E43403F583E0FF7DD712E7
:1025C700DB7F900149E0FE5403FD7401A8050880F4
:1025D70002C333D8FC4FFBEE1313543F2427F58275
:1025E700E43403F583E0FF7DD712DBE6900149E091
:1025F7001313543F2427F582E43403F583E0FF7B6C
:10260700027DFF12DBE612DB62900148EFF0A3E0E8
:10261700FE1313543F2427F582E43403F583E0FFC8
:10262700EE5403C3132416FD900149E0FE7C0F20EE
:10263700E0027CF0900148E05CFCEE540125E025C7
:10264700E0FE7405A806088002C333D8FC4CFB12D1
:10265700DBE6900149E0FE1313543F2427F582E49B
:102667003403F583E0FFEE54032405FB7DFF12DB03
:10267700E612CFBB900149E01313543F2427F5829C
:10268700E43403F583E0FF7B0C7D0112DBE6900168
:1026970049E01313543F2427F582E43403F583E01C
:1026A700FF7B407D0612DBE6900149E01313543FA0
:1026B7002427F582E43403F583E0FF90017AE07B79
:1026C70001B401027B007D1E12DBE6900149E01395
:1026D70013543F2427F582E43403F583E0FF900188
:1026E7007AE07B15B401027B177D3512DBE690019A
:1026F70049E01313543F2427F582E43403F583E0BC
:10270700FF90017AE07B01B401027B007D7A12DB46
:10271700E6900149E01313543F2427F582E434037C
:10272700F583E0FF90017AE07B81B401027B007DB5
:102737007B12DBE6900149E01313543F2427F5820F
:10274700E43403F583E0FF90017AE07B30B40102C3
:102757007B107DA112DBE6900149E01313543F245F
:1027670027F582E43403F583E0FF90017AE07B0CE0
:10277700B401027B0E7DA212DBE6900149E0131340
:10278700543F2427F582E43403F583E0FF90017A70
:10279700E07B50B401027B707DA312DBE690014918
:1027A700E01313543F2427F582E43403F583E0FF55
:1027B70090017AE07B20B401027B407DA812DBE622
:1027C700900149E01313543F2427F582E43403F5BD
:1027D70083E0FF90017AE07B20B401027B107DAC9F
:1027E70012DBE6900149E01313543F2427F582E4F6
:1027F7003403F583E0FF90017AE07B20B401027B8C
:10280700087DAD12DBE6900149E01313543F2427FE
:10281700F582E43403F583E0FF90017AE07B14B49A
:1028270001027B047DAE12DBE6900149E0131354ED
:102837003F2427F582E43403F583E0FF7B727D2A8A
:1028470012DBE6900149E01313543F2427F582E495
:102857003403F583E0FF7BA87D2B12DBE69001496B
:10286700E01313543F2427F582E43403F583E0FF94
:102877007B137D5812DBE6900149E01313543F2484
:1028870027F582E43403F583E0FF7B017D5912DBF2
:10289700E6900149E01313543F2427F582E43403FB
:1028A700F583E0FF7B167DC012DBE6900149E0135C
:1028B70013543F2427F582E43403F583E0FF7B13A9
:1028C7007DC112DBE6900149E01313543F2427F53D
:1028D70082E43403F583E0FF7B047DC812DBE690D6
:1028E7000149E01313543F2427F582E43403F583A9
:1028F700E0FF7BEE7D4712DBE6900149E0131354BE
:102907003F2427F582E43403F583E0FF7BC47D5041
:1029170012DBE6900149E01313543F2427F582E4C4
:102927003403F583E0FF7B107DD812DBE690014985
:10293700E01313543F2427F582E43403F583E0FFC3
:102947007B1F7DD912DBE6900149E01313543F2426
:1029570027F582E43403F583E0FF7B2B7DDA12DB76
:10296700E6900149E01313543F2427F582E434032A
:10297700F583E0FF7B7F7DDB12DBE6900149E01307
:1029870013543F2427F582E43403F583E0FF7BFFEC
:102997007DDC12DBE6900149E01313543F2427F551
:1029A70082E43403F583E0FF7BFF7DDD12DBE690F5
:1029B7000149E01313543F2427F582E43403F583D8
:1029C700E0FF7BFF7DDE12DBE6900149E013135445
:1029D7003F2427F582E43403F583E0FF90017AE092
:1029E7007B1AB401027B2A7D2412DBE6900149E0C1
:1029F7001313543F2427F582E43403F583E0FF9053
:102A0700017AE07B86B401027B847D5012DBE6907D
:102A17000149E01313543F2427F582E43403F58377
:102A2700E0FF90017AE07BE4B401027B007DBB12FA
:102A3700DBE6900149E01313543F2427F582E43481
:102A470003F583E0FF7B097DFF12DBE6900149E098
:102A5700FE1313543F2427F582E43403F583E0FF84
:102A6700EE54032440FDE4FB12DBE6900149E0133A
:102A770013543F2427F582E43403F583E0FFE4FB96
:102A87007D4412DBE6900149E0FE1313543F2427EF
:102A9700F582E43403F583E0FFEE540325E025E0F7
:102AA7002450FD90017AE0B40105900176800390EF
:102AB7000166E0FEFB12DBE6900149E0FE131354CA
:102AC7003F2427F582E43403F583E0FFEE54032522
:102AD700E025E02451FD90017AE0B40105900177EB
:102AE7008003900167E0FEFB12DBE6900149E0FE00
:102AF7001313543F2427F582E43403F583E0FFEEF4
:102B0700540325E025E02452FD90017AE0B4010545
:102B17009001788003900168E0FEFB12DBE69001EC
:102B270049E0FE1313543F2427F582E43403F58369
:102B3700E0FFEE540325E025E02453FD90017AE001
:102B4700B401059001798003900169E0FEFB12DB77
:102B5700E6900149E090017EF090017AE07BFFB4B6
:102B670001067A2F792080047A2F792490017FEB50
:102B7700F0A3EAF0A3E9F07BFF7A2F7991800E7B2F
:102B8700FF7A2F79AC900149E090017EF01252BC98
:102B9700900149E0FF244AF582E43401F583E0FE21
:102BA700747A2FF582E43402F583EEF0900149E060
:102BB700FF900145E0FBA3E0FAA3E0F91277369016
:102BC7000149E01313543F2427F582E43403F583C6
:102BD700E0FF7B097DFF12DBE6900149E013135408
:102BE7003F2427F582E43403F583E0FF7B187D64F7
:102BF70012DBE6900149E01313543F2427F582E4E2
:102C07003403F583E0FF7BC27D6512DBE690014963
:102C1700E01313543F2427F582E43403F583E0FFE0
:102C27007B017D6612DBE6900149E01313543F24D4
:102C370027F582E43403F583E0FF7B1E7D6712DB13
:102C4700E6900149E01313543F2427F582E4340347
:102C5700F583E0FF7B027D6812DBE6900149E01314
:102C670013543F2427F582E43403F583E0FF7B64A4
:102C77007D6912DBE6900149E01313543F2427F5E1
:102C870082E43403F583E0FF7B607D6A12DBE69024
:102C97000149E01313543F2427F582E43403F583F5
:102CA700E0FF7B3C7D6B12DBE6900149E0FF126D94
:102CB7000D900149E004F002061E224E56503631AF
:102CC70032345F416665526573657420646F6E6563
:102CD7000A006E7670363132342064617461207276
:102CE700657665727365640A006E767036313234C4
:102CF700625F73797374656D5F696E69740A000A40
:102D07000D206E76703631323420736F66747761BA
:102D170072652072657365742121210A00766964E2
:102D2700656F5F666D745F6465626F756E6365205E
:102D370063685B25645D206275665B25645D203D85
:102D47002025780A007369676E616C206368616E7D
:102D57006765210A00313038305020737461676528
:102D67005F757064617465203D2025642C20657152
:102D77005F73746167655B25645D3D25642C795FCE
:102D870065715F73746167653D25642C635F657169
:102D97005F73746167653D25642C76616C5F626162
:102DA7006B3D25782C76616C5F62616B5F623D25B8
:102DB700780A00373230502073746167655F757029
:102DC70064617465203D2025642C2065715F7374F0
:102DD7006167655B25645D3D25642C795F65715F7F
:102DE70073746167653D25642C635F65715F7374F8
:102DF7006167653D25642C76616C5F62616B3D257B
:102E0700782C76616C5F62616B5F623D25780A00A2
:102E17006E7670363132345F6F7574706F72745FAF
:102E2700316D75785F63687365710A006E76703609
:102E37003132345F6F7574706F72745F326D75788D
:102E47002073657474696E670A006E767036313266
:102E5700345F6F7574706F72745F346D757820733B
:102E6700657474696E670A006E7670363131346145
:102E77005F6F7574706F72745F316D75785F6368BB
:102E87007365710A006E767036313134415F6F7544
:102E970074706F72745F326D7578207365747469BE
:102EA7006E670A006E767036313134415F6F757424
:102EB700706F72745F346D75782073657474696EA2
:102EC700670A000A0A63686D6F64655B305D2025D9
:102ED70062752063686D6F64655B315D202562757F
:102EE7002063686D6F64655B325D202562752063C2
:102EF700686D6F64655B335D20256275200A0A0083
:102F070063682025642073657474656420746F207A
:102F1700373230482025730A0050414C004E545335
:102F270043006368202564207365747465642074A6
:102F37006F20393630482025730A006368202562E0
:102F4700752073657474656420746F20534420255D
:102F5700730A00636820256275207365747465645D
:102F670020746F20373230502025730A00636820A1
:102F77002562752073657474656420746F20373219
:102F870030504052542025730A006368202562752B
:102F97002073657474656420746F20313038305045
:102FA7002025730A00636825642077726F6E672097
:102FB7006D6F6465206465746563746564212121A0
:102FC7000A000000FC030000000060606060080861
:102FD7000808808080809090909000000000AFAF3C
:102FE700AFAF2F920B432F920B432F920B432F928E
:102FF7000B4317171717040404040A0A0A0A8080E8
:1030070080800000000000000000000000000000B9
:10301700000000000000F0101000A0A0A0A09E9EDD
:103027009E9E000000008D8D8D8D00000000000029
:103037000000000000000000000088881111000057
:1030470000000F666633330000000000001111779F
:10305700770000000000000000001616161600009A
:103067000000000000000000000011110000000037
:103077000000000000000000000000000000000049
:103087000000000000000000000000000000000039
:103097000000000000000000000000000000000029
:1030A7000000000000000000000090000000000089
:1030B7000000000000000000000000000000000009
:1030C7000000820F0F0F0F0F1BC80300103254763A
:1030D7000098BADCFE080000888888888888888875
:1030E700888888880319181600000088FF40AAAA54
:1030F700AAAAAA820000008CA00018018030000054
:1031070080000F0F0F0F00000000000000000000FC
:1031170000000000000000000000000000000000A8
:103127000000000000000000000000000000000098
:103137000000000000000000000000000000000088
:1031470000006000142C000000004444DDDD111174
:10315700555500000080000000000C000000000032
:103167000000000000000000000000000000000058
:103177000000000000004030403000000000000068
:10318700000022223333000011110000FF0030300D
:103197003030000000F000000000000000000000D8
:1031A7000000000000000000000000000000000018
:1031B7000000000000000000000000000000000008
:1031C70000011060106010601060106010601060E7
:1031D700106000000F00C0005555FFFFFFFF000003
:1031E7000000FFFFFFFFFFFFFFFFFFFFFFFFFFFFE6
:1031F700FFFFFFFFFFFFFFFFFFFFFFFFFFFFFFFFD8
:10320700FFFFFFFFFFFFFFFFFFFFFFFFFFFFFFFFC7
:10321700FFFFFFFFFFFFFFFFFFFFFFFFFFFFFFFFB7
:10322700FFFFFFFFFFFFFFFFFFFFFFFFFFFFFFFFA7
:10323700FFFFFFFFFFFFFFFFFFFFFFFFFFFFFFFF97
:10324700FFFF000000000000000000000000000079
:103257000000000000000000000000000000000067
:103267000000000000000000000000000000000057
:103277000000000000000000000000000000000047
:103287000000000000000000000000000000000037
:103297000000000000000000000000000000000027
:1032A7000000000000000000000000000000000017
:1032B7000000000000000000000000000000000007
:1032C700000237371B050007000900000806004603
:1032D7000000AA1C18FF000000000000000000000A
:1032E70000000000000000000000000000000000D7
:1032F700800100FF00000000000010320000000005
:1033070000000000000000000000000000000000B6
:1033170000000000000000000000000000000000A6
:103327000000000000000000000000000000000096
:103337000000000000000000000000000000000086
:10334700000037371B050007000900000806004684
:103357000000AA1C18FF0000000000000000000089
:103367000000000000000000000000000000000056
:10337700800100FF00000000000010320000000084
:103387000000000000000000000000000000000036
:103397000000000000000000000000000000000026
:1033A7000000000000000000000000000000000016
:1033B7000000000000000000000000000000000006
:1033C700000337371B050007000900000806004601
:1033D7000000AA1C18FF0000000000000000000009
:1033E70000000000000000000000000000000000D6
:1033F700800100FF00000000000010320000000004
:1034070000000000000000000000000000000000B5
:1034170000000000000000000000000000000000A5
:103427000000000000000000000000000000000095
:103437000000000000000000000000000000000085
:10344700000037371B050007000900000806004683
:103457000000AA1C18FF0000000000000000000088
:103467000000000000000000000000000000000055
:10347700800100FF00000000000010320000000083
:103487000000000000000000000000000000000035
:103497000000000000000000000000000000000025
:1034A7000000000000000000000000000000000015
:1034B7000000000000000000000000000000000005
:1034C7000004C00C0C1F0024408050380F0004304B
:1034D70030000606008037804937EFDFDF08500CE1
:1034E7000188842023002ADCF057907052780868FE
:1034F7000007E043A20000152500000202000000BB
:10350700000000000000000000040044AA000000C2
:10351700000084FFFF00000000000301000000001E
:10352700003053532000020000000000000000009C
:103537000000C0010606110001810101018101019E
:103547000000000000000000000000000000000074
:103557000000010000000000000048840080000017
:10356700000010300C501034705C202030402020B8
:1035770014A040500E000080000038B20500A000E3
:103587000000171400000000000000000000000009
:103597000000000000000000000000000000000024
:1035A7000000000000000000000000000000000014
:1035B7000000000000000000000000000000000004
:1035C7000005020406080C1014181C202830384087
:1035D700485058606870787F878F979FAFBFCFDF5D
:1035E700EFFF010305070B0F13171B1F272F373F8C
:1035F700474F575F676F777F878F979FAFBFCFDF44
:10360700EFFF000000000F000600000000000000B0
:103617000000EE00E54EEE00E54EEE00E54EEE0052
:10362700E54E000000000000000000000000000060
:103637000000000000000000000000000000000083
:103647000000000000000000000000000000000073
:103657000000000000000000000000000000000063
:103667000000000000000000000000000000000053
:103677000000000000000000000000000000000043
:103687000000000000000000000000000000000033
:103697000000000000000000000000000000000023
:1036A7000000000000000000000000000000000013
:1036B7000000000000000000000000000000000003
:1036C700000900000280040408040C00080E802092
:1036D7000A083042800A7A886C5E181F8E94C7A346
:1036E700A00A00000000000000000201000103A082
:1036F7000403030B0A110D0627004E6D740000002A
:1037070000000000000000000000000000000000B2
:1037170000000105870B0105870B8E11640000006F
:1037270000000201000103A00403030B0A110D06A8
:1037370027004E6D7400000000000000000000002C
:10374700000000000280040408040C00080E80201A
:103757000A083042800A7A886C5E181F8E94C7A3C5
:10376700A00A00000000000000000201000103A001
:103777000403030B0A110D0627004E6D74000000A9
:103787000000000000000000000000000000000032
:1037970000000105870B0105870B8E1164000000EF
:1037A70000000201000103A00403030B0A110D0628
:1037B70027004E6D740000000000000000000000AC
:1037C700000A00000280040408040C00080E802090
:1037D7000A083042800A7A886C5E181F8E94C7A345
:1037E700A00A00000000000000000201000103A081
:1037F7000403030B0A110D0627004E6D7400000029
:1038070000000000000000000000000000000000B1
:1038170000000105870B0105870B8E11640000006E
:1038270000000201000103A00403030B0A110D06A7
:1038370027004E6D7400000000000000000000002B
:10384700000000000280040408040C00080E802019
:103857000A083042800A7A886C5E181F8E94C7A3C4
:10386700A00A00000000000000000201000103A000
:103877000403030B0A110D0627004E6D74000000A8
:103887000000000000000000000000000000000031
:1038970000000105870B0105870B8E1164000000EE
:1038A70000000201000103A00403030B0A110D0627
:1038B70027004E6D740000000000000000000000AB
:1038C700000BC00E0C1F0020408050380F00043042
:1038D70030000604008037804937EFDFDF20500CC7
:1038E700FF88902023002ADCF057901F5278046845
:1038F7000007E043A20000152500000202000000B7
:10390700000000000000000000040044AA000000BE
:10391700000084FFFF00000000000300000000001B
:1039270000005353000000000000000000000000EA
:103937000000C0010606110001810101000000809E
:1039470000000000000000000000043FFFFFFF0030
:103957000000010000000000000048840080000013
:10396700000010300C501034705C202030402020B4
:10397700142040500E000080000039B20500A0005E
:10398700000000130000000000000000000000001D
:103997000000000000000000000000000000000020
:1039A7000000000000000000000000000000000010
:1039B7000000000000000000000000000000000000
:1039C70000050000000000000000000000000000EB
:1039D7000000000000004D0E886CEE00E54E2CF94B
:1039E700C5522CF0CA527535B46C4608104F2CE7F7
:1039F700CF52C87DC35250616E656C3A2025732043
:103A07000D0A0048414E5354415220372720545441
:103A17004C3838380016F3C200C100C708C808C9B7
:103A270002CA22E0F8E1F4E390FE04900491079DB6
:103A3700109E809F80B080B100B216B300B440B52D
:103A470001B6F0B700B802B902BA0ABB02BC20BD82
:103A570000BE03BF00DC40DD01DEF0DF00FF00A297
:103A67000F680669086A606B086C6062006301642E
:103A770000650066016700FF000D030E770F4C100D
:103A87002A11B94B3769106A886C0080048108884D
:103A97002689558B008C003F003F00FF0077007898
:103AA700007900FF0000000F70102816F318101996
:103AB700081A42300231843C0C6188620463046452
:103AC700057020723373467400751F84008556C2D3
:103AD700000D280F70C480FF001000128013003AF9
:103AE700003B223C0A3F00FF0012061440302D31F4
:103AF700613E07401C3F003F00FF007CE07D037EE6
:103B0700847F01FF00FF00C200C808C902CA22FF64
:103B170000FF0000000103024B034804DD07A00873
:103B27006809200A7F182119F01A7C1B1F2E822F83
:103B370050302D3161FF00FF00FF00C200C808C9E7
:103B470002CA22FF00FF0000320103024B034804B0
:103B5700DD07A0086809200A7F182A19091A8A1B95
:103B6700CB2E822F50302B31D3FF00FF00FF00C236
:103B770002C84FC902CA22FF00FF000108024B0317
:103B87004A04DC07AE087009200A702E002F50FF88
:103B970000FF00FF00C202C844C903CA21FF00FF9B
:103BA700000109024B034A04DC07AE085009180A52
:103BB700702E002F4EFF00FF00FF00C202C84FC942
:103BC70002CA22FF00FF000108024B034A04DC0778
:103BD700AE087009200A702E002F50FF00FF00FF6B
:103BE70000C202C844C903CA21FF00FF000109023D
:103BF7004B034A04DC07AE085009180A702E002F41
:103C07004EFF00FF00FF007020723373467400758B
:103C17001F84008556B080B216B802B902BA0ABB33
:103C270002BC20BE039107C200FF00FF00FF00FF98
:103C370000FF00702072337344743D75268400853D
:103C470038B080B216B86FB902BA0ABB02BC20BE40
:103C5700039107C200FF00FF00FF00FF00FF007095
:103C67002072CC731B7400751384C78501B080B1B3
:103C770000B222B300B420B503B6E0B701B811B95A
:103C870005BA60BB02BC20BD00BE04BF00DC20DD5E
:103C970003DEE0DF019107C202FF00FF00FF00FF24
:103CA70000FF00702072CC731B7400750F84C785EA
:103CB70013B080B220B87DB905BA60BB02BC20BE84
:103CC700049107C202FF00FF00FF00FF00FF007022
:103CD7002072CC731B7400751384C78501B080B143
:103CE70000B229B300B420B503B6E0B701B811B9E3
:103CF70005BA60BB02BC20BD00BE04BF00DC20DDEE
:103D070003DEE0DF019107C202FF00FF00FF00FFB3
:103D170000FF00702072CC731B7400750F84C78579
:103D270017B080B221B87DB905BA60BB02BC20BE0E
:103D3700049107C202FF00FF00FF00FF00FF000021
:103D47006001600260042F0A800B800C800D200F39
:103D5700F01009111D132A14DE181619341A8020C1
:103D67008040C24F0030003108C202C4A0C84FC90A
:103D770002CA22FF00000E3A003B22FF00FF00FFAD
:103D870000FF0001670267042F0B801009111D1443
:103D9700DE15A016A6172840C24510460548A049BB
:103DA700054AF04B004CDE4D004E114F0061886212
:103DB70006630664016980C864FF00FF00FF00FF17
:103DC70000FF007020720073387422750F7800842A
:103DD700C78533B221B80FB905BA66BB02BC20BE8E
:103DE70004FF003B44FF00FF00FF00FF00016702E4
:103DF70067042F0B801009111D14DE155A16A3171F
:103E07002840C24512460148D049024AE04B014CBE
:103E1700664D004E264F006188620663066401699D
:103E270080C861FF00FF00FF00FF00FF00702072E5
:103E3700B1731C7400751F780084C78514B220B84D
:103E470009B905BA66BB02BC20BE04FF003B44FFAC
:103E570000FF00FF00FF0001670267042F0B8010BF
:103E670009111D14DE15C016A6172840C2451046B5
:103E77000548A049054A204B014C004D014E134F00
:103E87000061886206630664016980C84FFF00FF0E
:103E970000FF00FF00FF0070207200733874007588
:103EA70013780084C7851EB221B814B905BA66BB5A
:103EB70002BC20BE04FF003B44FF00FF00FF00FFE1
:103EC7000001670267042F0B801009111D14DE150E
:103ED7006016A3172840C24512460548D049024A32
:103EE700404B024C6D4D004E2D4F006188620663BA
:103EF7000664016980C84FFF00FF00FF00FF00FF55
:103F070000702072A0731C74107526780084C78512
:103F170037B21AB817B905BA66BB02BC20BE04FF90
:103F2700003B44FF00FF00FF00FF0001670267043A
:103F37002F0BA01009111F14DE15B516E7178040C7
:103F4700C245124605480049054AD04B024C124D5E
:103F5700014E194F006188620A630664016980FF98
:103F670000FF00FF00FF00FF0070307233733374EF
:103F770033752F780084C78500B212B840B905BAE7
:103F870066BB02BC20BE04FF003B44FF00FF00FFEE
:103F970000FF0001600260042F0BA01009111F141D
:103FA700DE157216E6178040C245124605480049DD
:103FB700054AD04B024C134D014E174F00618862E2
:103FC7000A630664016980FF00FF00FF00FF00FF2E
:103FD7000070307233733374D4752F780084C785BB
:103FE70008B20DB872B904BA66BB02BC20BE04FFA2
:103FF700003B44FF00FF00FF00FF00016002600478
:104007002F0BA01009111F14DE153016EA17804078
:10401700C245104605488049074A1C4B024CD84DFB
:10402700004E144F006188620A630664016980FFCD
:1040370000FF00FF00FF00FF0070307280734B74B9
:10404700167523780084C7851FB20DB835B905BA30
:1040570066BB02BC20BD00BE04BF00FF003B44FF9F
:1040670000FF00FF00FF0001600260042F0BA0109B
:1040770009111F14DE159816E8176040C24510464F
:1040870005488049074A1C4B024CD44D004E124F3D
:10409700006188620A630664016980FF00FF00FF10
:1040A70000FF00FF00703072CC734C7409752378E1
:1040B7000084C78506B211B855B904BA66BB02BCFD
:1040C70020BE04FF003B44FF00FF00FF00FF00008D
:1040D700E0016F026F042F0A800B800C800D200F08
:1040E70070100D1100132A14F0180019241A8720D4
:1040F7002040C24F0030003108C202C4A0C826C900
:1041070002CA22E0C8FF00000E3AA03B22FF00FFD0
:1041170000FF00FF00042A0BA0153016E4172845FE
:104127000B4601482049034A584B024C4F4D004E5D
:10413700154F006108620A63066401FF003AA0FF99
:1041470000FF00FF00FF00910770107200732074DA
:104157000075287800840B850EB080B20FB854B96B
:1041670004BAA0BB02BC20BE04FF003B44FF00FF13
:1041770000FF00FF00042F155A16A3177840C2410D
:104187005E4200430E44004509460148D049024AB1
:10419700E04B014C244D004E214F0061C0621F636C
:1041A7001F6404688069706CB09D1D9EF09F80C27B
:1041B70002FF003AE0FF00FF00FF00FF0091877059
:1041C7002072A4731B74B0751E780084C78500B075
:1041D7007CB222B850B904BA60BB02BC24BE04C486
:1041E700A0C854C902CA22FF003B44FF00FF00FFDA
:1041F70000FF00042F155A16A3177840C2416542E5
:104207000043154400450B460148D049024A404B3C
:10421700024C244D004E294F0061C0621F631F648A
:1042270004688069706CB09D1D9EF09F80C202FF7C
:10423700003AE0FF00FF00FF00FF00918770207247
:10424700A4731B742D7524780084428500B07CB25A
:1042570023B804B905BA60BB02BC24BE04C4A0C815
:1042670052C902CA22FF003B44FF00FF00FF00FFC4
:10427700000F00102816F31924300231003C003FCC
:104287000CB20AB300E0F8E6C0FF00100013003BD1
:1042970022FF00FF00FF00FF0061886204630464DF
:1042A70005688869806C80FF00D030D100D210D3B8
:1042B70001D401D514D7D0D802D901DA10DBF0DC4C
:1042C70000DD00DE00DF0CFF00FF007FE0FF00FFE6
:1042D700006188620463046405688869806C80FFF4
:1042E70000D030D100D210D301D401D514D7D0D803
:1042F70002D901DA10DB20DC01DD00DE00DF0CFF74
:1043070000FF007FE0FF00FF006188620463046430
:1043170005688869806C80FF00D030D100D210D347
:1043270001D401D514D700D805D901DA10DBD6DCC2
:1043370002DD00DE00DF4CFF00FF007FE0FF00FF33
:10434700006188620463046405688869806C80FF83
:1043570000D030D100D210D301D401D514D700D862
:1043670005D901DA10DBD6DC02DD00DE00DF4CFF09
:1043770000FF007FE0FF00FF0061886204630464C0
:1043870005688869806C80FF00D030D100D210D3D7
:1043970001D401D500D780D807D913DA10DB39DC6F
:1043A70004DD00DE00DF4CFF00FF007FE0FF00FFC1
:1043B700006188620463046405688869806C80FF13
:1043C70000D030D100D210D301D401D500D780D886
:1043D70007D913DA10DB39DC04DD00DE00DF4CFF20
:1043E70000FF007FE0FF00FF0070307230731C7425
:1043F700007510810082008400852DB020B220B89E
:1044070000B904BA0ABC50BD00BE03BF00C001C456
:1044170080C824C902CA22FF00FF00FF00FF00FF77
:104427000070107262731C743375138100820084EC
:10443700008580B020B20AB8D0B904BA0ABC50BD12
:1044470000BE03BF00C001C480C824C902CA22FF3E
:1044570000FF00FF00FF00FF00701072337332741B
:104467000075308100820084008522B020B20AB82E
:1044770059B906BA0ABC50BD00BE03BF00C001C48B
:1044870080C81BC902CA22FF00FF00FF00FF00FF10
:1044970000701072337332740075308100820084AB
:1044A700008528B020B20AB84DB906BA0ABC50BD7B
:1044B70000BE03BF00C001C480C816C902CA22FFDC
:1044C70000FF00FF00FF00FF00701072CC734C74F8
:1044D7000075408100820084008521B020B20FB8AA
:1044E70074B905BA0ABC50BD00BE03BF00C001C401
:1044F70080C81AC902CA22FF00FF00FF00FF00FFA1
:1045070000701072CC734C74007540810082008477
:10451700008521B020B210B88CB906BA0ABC50BDCC
:1045270000BE03BF00C001C480C81AC902CA22FF67
:1045370000FF00FF00FF00FF000000010101020271
:10454700020303040405050607070808090A0B0BFD
:104557000C0D0E0E0F101112131314151617181930
:104567001A1B1C1D1E1F2021222325262728292A26
:104577002B2C2D2F3031323334363738393A3C3DF6
:104587003E3F41424344454748494A4C4D4E4F51AF
:10459700525354565758595B5C5D5E5F6162636462
:1045A700666768696A6C6D6E6F707273747576781A
:1045B700797A7B7C7D7E8081828384858687898AE0
:1045C7008B8C8D8E8F9091929394959798999A9BB7
:1045D7009C9D9E9FA0A1A2A3A4A5A6A7A8A8A9AA9F
:1045E700ABACADAEAFB0B1B2B3B4B5B5B6B7B8B9A1
:1045F700BABBBCBDBEBEBFC0C1C2C3C4C5C5C6C7AA
:10460700C8C9CACBCBCCCDCECFD0D1D2D2D3D4D5BB
:10461700D6D7D8D9DADBDBDCDDDEDFE0E1E2E3E4C5
:10462700E5E6E7E8E9EAEBECEDEEEFF0F1F2F3F4BB
:10463700F6F7F8F9FAFBFDFEFF3AAC3B0E3B423BBF
:104647009C3BC23B763BE83C0E3C3A3CAA3CD63C02
:10465700663D1A3D463D8A3E5E3DF43EC83F323FC9
:104667009A4002406E3DCA3E9E3E343F083F703F2F
:10467700D8404040AC40D6417C41FA411C41C4423D
:1046870042414E427842A042D843104348438043B8
:10469700B843F044284460449844D04508EC4D6042
:1046A70011E8497017ED33EC3304600DE4FCFFFEAD
:1046B700FD22E933E8330470F802489412485F5842
:1046C700046009E4CC2481500628500902489E283A
:1046D700400302489BC0E0EB4A7044B98006D0E033
:1046E700FB02488AEF4E701CBD8008EBFFEAFEE92B
:1046F700FD80EBE98DF0A4FEE5F002478DE9CDF9E9
:10470700EAFEEBFFEF89F0A4FCE5F0CE89F0A42EDA
:10471700FFE435F0CD89F0A42DFEE435F08067EF96
:104727004E7005BD80D780C3EF8BF0A4ACF0EE8B45
:10473700F0A42CFCE435F0F8EF8AF0A42CE5F0386F
:10474700FCE433CB8DF0A42CFCE5F03BF8EE8AF0CB
:10475700A42CFCE5F038F8E433CF89F0A42CFCE571
:10476700F038CF3400CE89F0A42FFFE5F03EFEE409
:1047770033C98DF0A42EFEE5F039CD8AF0A42FFFC2
:10478700E5F03EFEE43DFD33D0E0FB50070BBB00F8
:104797000F02489EEC2CFCEF33FFEE33FEED33FDAA
:1047A70002487674F8CC6480CCC86480C8F582046B
:1047B7006043C3EB9FF5F0EA9E42F0E99D42F0E8C3
:1047C7009C45F060305018E5825FFFE582F42B5579
:1047D70082FB50210ABA001D09B90019088016E5A5
:1047E700825BFBE582F42F5582FF50090EBE000560
:1047F7000DBD00010CC3EB9FF5F0EA9E42F0E99D69
:1048070042F0E89C45F06007CC4820E701B3EC2272
:10481700ED33EC33600A047003BD8004ECB2E7FCAF
:1048270022EDD2E7CD33EC3392D524814006E4FF65
:10483700FEFDFC22FCE4CFCECDCC24E0501174FF6A
:1048470080EDC3CC13CCCD13CDCE13CECF13CF0475
:1048570070F030D5DE02507DE9D2E7C933E833F88E
:1048670092D5EDD2E7CD33EC33FC5002B2D522EC32
:1048770030E7100FBF000C0EBE00080DBD00040B83
:10488700EB6014A2D5EB13FCED92E7FD2274FFFC5D
:10489700FDFEFF22E480F8A2D574FF13FC7D80E4BF
:1048A70080EFF920E73624F950037907E4F424026E
:1048B700FBE582158270021583DBF6E024FB501BB3
:1048C700E96014E4F0E582158270021583E004F0D4
:1048D700B40A08E4F0D9EE7401F00A22C2D522ED39
:1048E70033EC3392D5FA602AB4FF33EDC2E77BFF8E
:1048F70060067A49790BE4227A49791420D5047A3B
:1049070049790F224E614E002B494E46002D494EE4
:104917004600E47A08F0A3DAFC7B00740722C08320
:10492700C082ECC0E0EDC0E0EEC0E0EFC0E0EA75A9
:10493700F010A4CAABF075F04DA42BFBE435F0FCE6
:10494700EA2410FAEB34C5FBEC34D9FCEDC2E7FFDF
:1049570075F056A4F42411C5F0F434C58FF0A42AD9
:10496700E5F03BE43CF020E714124BB3D0E0FFD076
:10497700E0FED0E0FDD0E0FC124AE68014F4041219
:104987004BB3D0E0FFD0E0FED0E0FDD0E0FC124614
:10499700A4D082D083E0FAEDD2E7CD33EC33248282
:1049A700FBE4C3CF33CFCE33CECD33CD33DBF37B75
:1049B7000775F00A846004F0A31B0AE5F0F0A38FE3
:1049C700F0740AA4FFACF08EF0740AA42CFEACF0CD
:1049D70050010C8DF0740AA42CFDE435F0F0A3DB34
:1049E700DE740722024894E86480F8E933E833600C
:1049F700110460F0ED33EC337009E8FCE9FDEAFEE1
:104A0700EBFF220460DED3EB9FEA9EE99DE8C2E755
:104A17008CF0C2F795F0400CE8CCF8E9CDF9EACE76
:104A2700FAEBCFFB12485F85D0F05804700320D50E
:104A3700B3E80470075002B2D502489E92D5EC0441
:104A470060F7E4CCC0E0C398F8603B941860084076
:104A57000DD0E0FB024876E4FBFAC9FC8028E83079
:104A6700E406E4C9FBE4CAFCE830E305E4C9CACBC1
:104A7700FCE854076010F8C3E913F9EA13FAEB13DB
:104A8700FBEC13FCD8F130F52FC3E49CFCEF9BFF44
:104A9700EE9AFEED99FDD0E0FBEF4E4D4C701222E1
:104AA700DB0302489BEC2CFCEF33FFEE33FEED33C8
:104AB700FDED30E7EB024876EF2BFFEE3AFEED39DE
:104AC700FDD0E0FB50130BBB000302489EED13FD26
:104AD700EE13FEEF13FFEC13FC02487602489EEC40
:104AE7005D046005E85904700302489412485F5852
:104AF7000460F6EC4860F2EC7004FDFEFF22C8602B
:104B0700DB2481C85009C3986002500602489B986D
:104B170050CAF582E9294B4A7005AB8202488A756B
:104B2700F0007C1A7880C3EF9BEE9AED99400DC395
:104B3700EF9BFFEE9AFEED99FDE842F0DC23ACF027
:104B4700D0E0FFD0E0FED0E0FDAB8220E7101BEB0A
:104B570060BAEC2CFCEF33FFEE33FEED33FD024879
:104B670076E803F830E705C0F075F000EF2FFFEEA9
:104B770033FEED33FD40B830E7C280AA3F80000026
:104B87004120000042C80000447A0000461C400053
:104B970047C35000497424004B1896804CBEBC2074
:104BA7005A0E1BCA6753C21C749DC5AEFB600654E0
:104BB70007601C2323124BE1EB54386009124BCDDD
:104BC700124BDC1246A4ECF8EDF9EEFAEFCB22EB30
:104BD700124BDC80F1543803241C904B83FE93FC6A
:104BE7000EEE93FD0EEE930ECE93FF22E709F60825
:104BF700DFFA8046E709F208DFFA803E88828C8375
:104C0700E709F0A3DFFA8032E309F608DFFA8078D4
:104C1700E309F208DFFA807088828C83E309F0A346
:104C2700DFFA806489828A83E0A3F608DFFA805876
:104C370089828A83E0A3F208DFFA804C80D280FA67
:104C470080C680D4806980F28033801080A680EA95
:104C5700809A80A880DA80E280CA803389828A833A
:104C6700ECFAE493A3C8C582C8CCC583CCF0A3C82B
:104C7700C582C8CCC583CCDFE9DEE7800D89828A8F
:104C870083E493A3F608DFF9ECFAA9F0EDFB228998
:104C9700828A83ECFAE0A3C8C582C8CCC583CCF06E
:104CA700A3C8C582C8CCC583CCDFEADEE880DB8930
:104CB700828A83E493A3F208DFF980CC88F0EF605F
:104CC700010E4E60C388F0ED2402B4040050B9F51C
:104CD70082EB2402B4040050AF2323458223904C77
:104CE7004373BB010689828A83E0225002E722BB15
:104CF700FE02E32289828A83E49322BB010CE582C8
:104D070029F582E5833AF583E0225006E92582F802
:104D1700E622BBFE06E92582F8E222E58229F58232
:104D2700E5833AF583E49322BB010689828A83F0FF
:104D3700225002F722BBFE01F322F8BB010DE582E8
:104D470029F582E5833AF583E8F0225006E92582C2
:104D5700C8F622BBFE05E92582C8F222EF8DF0A432
:104D6700A8F0CF8CF0A428CE8DF0A42EFE22BC0094
:104D77000BBE0029EF8DF084FFADF022E4CCF8756F
:104D8700F008EF2FFFEE33FEEC33FCEE9DEC98407E
:104D970005FCEE9DFE0FD5F0E9E4CEFD22EDF8F51A
:104DA700F0EE8420D21CFEADF075F008EF2FFFED7A
:104DB70033FD4007985006D5F0F222C398FD0FD572
:104DC700F0EA22C2D5EC30E709B2D5E4C39DFDE491
:104DD7009CFCEE30E715B2D5E4C39FFFE49EFE12BC
:104DE7004D75C3E49DFDE49CFC8003124D7530D5E1
:104DF70007C3E49FFFE49EFE22C5F0F8A3E028F076
:104E0700C5F0F8E582158270021583E038F022A319
:104E1700F8E0C5F025F0F0E582158270021583E011
:104E2700C838F0E822BB010A89828A83E0F5F0A33B
:104E3700E022500687F009E71922BBFE07E3F5F0E9
:104E470009E3192289828A83E493F5F07401932296
:104E5700BB0110E58229F582E5833AF583E0F5F099
:104E6700A3E0225009E92582F886F008E622BBFE76
:104E77000AE92582F8E2F5F008E222E5832AF583BC
:104E8700E993F5F0A3E99322BB010789828A83029C
:104E97004E00500B09C5F027F7C5F01937F722BBAD
:104EA700FE0D09F8E325F0F3C5F019E338F322F80E
:104EB70089828A8374019325F0C5F0F8E493382238
:104EC700BB010DC58229C582C5833AC583024E0041
:104ED7005011C58229F808E5F026F618F5F0E582A5
:104EE70036F622BBFE11C58229F808E225F0F5F057
:104EF700F218E23582F222F8E58229F582E5832A63
:104F0700F58374019325F0F5F0E4933822BB010A89
:104F170089828A83F0E5F0A3F0225006F709A7F00B
:104F27001922BBFE06F3E5F009F31922F8BB0111BC
:104F3700E58229F582E5833AF583E8F0E5F0A3F009
:104F4700225009E92582C8F608A6F022BBFE09E926
:104F57002582C8F2E5F008F222E88FF0A4CC8BF0A6
:104F6700A42CFCE98EF0A42CFC8AF0EDA42CFCEA1E
:104F77008EF0A4CDA8F08BF0A42DCC3825F0FDE958
:104F87008FF0A42CCD35F0FCEB8EF0A4FEA9F0EB4E
:104F97008FF0A4CFC5F02ECD39FEE43CFCEAA42D5A
:104FA700CE35F0FDE43CFC2275F008758200EF2F4A
:104FB700FFEE33FECD33CDCC33CCC58233C5829BD8
:104FC700ED9AEC99E58298400CF582EE9BFEED9AFE
:104FD700FDEC99FC0FD5F0D6E4CEFBE4CDFAE4CC9A
:104FE700F9A88222B800C1B90059BA002DEC8BF09C
:104FF70084CFCECDFCE5F0CBF97818EF2FFFEE3359
:10500700FEED33FDEC33FCEB33FB10D70399400483
:10501700EB99FB0FD8E5E4F9FA227818EF2FFFEEAA
:1050270033FEED33FDEC33FCC933C910D7059BE9DB
:105037009A4007EC9BFCE99AF90FD8E0E4C9FAE437
:10504700CCFB2275F010EF2FFFEE33FEED33FDCCD6
:1050570033CCC833C810D7079BEC9AE899400AEDC0
:105067009BFDEC9AFCE899F80FD5F0DAE4CDFBE468
:10507700CCFAE4C8F922C3E49FFFE49EFEE49DFD59
:10508700E49CFC22EB9FF5F0EA9E42F0E99D42F09A
:10509700EC6480C864809845F022EB9FF5F0EA9EA7
:1050A70042F0E99D42F0E89C45F022E8600FECC32E
:1050B70013FCED13FDEE13FEEF13FFD8F122E860AA
:1050C7000FEFC333FFEE33FEED33FDEC33FCD8F1C6
:1050D70022BB010789828A830252655005E9F802DB
:1050E7005259BBFE05E9F802527189828A8302513F
:1050F70012BB010789828A830251325005E9F802FF
:10510700527DBBFE05E9F802528922E493FC740143
:1051170093FD740293FE740393FF22E493F87401E2
:1051270093F9740293FA740393FB22ECF0A3EDF066
:10513700A3EEF0A3EFF022A8828583F0D083D0827C
:10514700125155125155125155125155E473E493AA
:10515700A3C583C5F0C583C8C582C8F0A3C583C5E9
:10516700F0C583C8C582C822A42582F582E5F0353B
:1051770083F58322F8E0FBA3A3E0F925F0F0E582AD
:10518700158270021583E0FA38F022EBF0A3EAF0FB
:10519700A3E9F022BB010789828A8302529E500548
:1051A700E9F8025295BBFE05E9F80252A789828AFF
:1051B700830252B0BB010DE58229F582E5833AF5FA
:1051C7008302529E5007E92582F8025295BBFE07DB
:1051D700E92582F80252A7E58229F582E5833AF5A7
:1051E700830252B0D083D082F8E493701274019393
:1051F700700DA3A393F8740193F5828883E4737405
:1052070002936860EFA3A3A380DFEF60010E4E60F7
:1052170015BB011789828A83E06D7005AA83A9826D
:1052270022A3DFF4DEF2E4F9FAFB225009E76D600E
:10523700F909DFF980F0BBFE09E36D60ED09DF02D4
:1052470080E489828A83E4936D60D1A3DFF8DEF678
:1052570080D4E6FC08E6FD08E6FE08E6FF22E0FC4F
:10526700A3E0FDA3E0FEA3E0FF22E2FC08E2FD08C5
:10527700E2FE08E2FF22ECF608EDF608EEF608EF8C
:10528700F622ECF208EDF208EEF208EFF222E6FB66
:1052970008E6FA08E6F922E0FBA3E0FAA3E0F92220
:1052A700E2FB08E2FA08E2F922E493FB740193FABD
:1052B700740293F92290017BEBF0A3EAF0A3E9F0E3
:1052C7009001D27401F0A37401F0A3747EF0E4900E
:1052D70001B4F090017BE0F9A3E0FAA3E09001A606
:1052E700C9F0A3EAF0A3E9F09001A6E0FBA3E0FA76
:1052F700A3E0F9124CE9FF7003025DDD642560034A
:10530700025DC7E49001B5F09001B9F09001B7F0E4
:105317009001BDF09001BA74FFF0E49001BEF0A3D4
:1053270074FFF0A374DDF0A37464F09001A6E0FBB2
:10533700A3E475F001124E00A9F0FA124CE91251DC
:10534700EB5DDD0053B22053C12353CB2A53FD2B12
:1053570053F32D54062E54993054A33154A3325489
:10536700A33354A33454A33554A33654A33754A3B7
:105377003854A339555D4456BE4F58305558BC581C
:10538700550C62551663556464566A6654F8685539
:10539700646955026C56166E56C56F574A70578129
:1053A7007358377558CA7800005DB89001BEE06041
:1053B700030253327420F00253329001B9E04408DB
:1053C700F00253329001D2E0FBA3E475F002124ED3
:1053D70016A9F0FA124E2C9001BDF0C36480948098
:1053E70040030253329001BDE0F404F09001B9E0AC
:1053F7004410F00253329001BE742BF002533290E6
:1054070001A6E0FBA3E475F001124E00A9F0FA1221
:105417004CE9B42A199001D2E0FBA3E475F002121B
:105427004E16A9F0FA124E2C9001B5F0804AE4907E
:1054370001B5F09001A6E0FBA3E0FAA3E0F9124C56
:10544700E9FFC39480502712E06B50229001A6E039
:10545700FBA3E475F001124E16A9F0FA124CE924E9
:10546700D0FF9001B5E075F00AA42FF080C5900138
:10547700A774FFF5F0124E009001B5E0FFC36480FA
:10548700948050067EFF7FFF80009001BAEFF00204
:1054970053329001B9E04420F0025332E49001B551
:1054A700F09001A6E0FBA3E0FAA3E0F9124CE9FFB4
:1054B700C39480502712E06B50229001A6E0FBA313
:1054C700E475F001124E16A9F0FA124CE924D0FF48
:1054D7009001B5E075F00AA42FF080C59001A7747C
:1054E700FFF5F0124E009001B5E09001BDF00253B8
:1054F700329001B9E04404F00253329001B9E0441C
:1055070001F00253329001B9E04480F00253329027
:1055170001D2E0FBA3E475F002124E16A9F0FA12CD
:105527004E2CFF7B017A0179C29001A9EBF0A3EA27
:10553700F0A3E9F0EF124D2F124CE970109001A97A
:10554700E0FBA3E0FAA3E0F97420124D2F9001BC11
:105557007401F00258289001B9E04401F09001B9B4
:10556700E030E0159001D2E0FBA3E475F004124EA1
:1055770016A9F0FA1250D8805F9001B9E0FF30E227
:105587001A9001D2E0FBA3E475F002124E16A9F0BF
:10559700FA124E2CACF0AE04FF8037EF5480FF3385
:1055A70095E04F9001D26017E0FBA3E475F001127C
:1055B7004E16A9F0FA124CE9FF3395E0FE8013E08E
:1055C700FBA3E475F002124E16A9F0FA124E2CFF57
:1055D700AEF0EE3395E0FDFC9001B0125132900130
:1055E700B0E0FCA3E0FDA3E0FEA3E0FFEC33501620
:1055F7009001B0A3A3A3E012507D9001B0125132E5
:105607009001BE742DF09001B6740AF0025978909B
:1056170001B9E030E0249001B4E0FF3395E0FEFDEE
:10562700FC9001D2E0FBA3E475F003124E16A9F03B
:10563700FA12519B1250F8025DD09001B9E0900127
:10564700B4E0FF3395E0FE9001D2E0FBA3E475F0F0
:1056570003124E16A9F0FA12519BEE8FF0124F1457
:10566700025DD09001D2E0FBA3E475F004124E1660
:10567700A9F0FA1250D89001AC125132E4FFFEFDA6
:10568700FC9001ACE0F8A3E0F9A3E0FAA3E0FB1279
:1056970047AA4003025A7E9001ACE0FCA3E0FDA3B9
:1056A700E0FEA3E0FF1248179001AC1251329001BF
:1056B700BE742DF0025A7E9001B9E04401F09001CA
:1056C700B9E030E0159001D2E0FBA3E475F00412D5
:1056D7004E16A9F0FA1250D8805A9001B9E0FF305F
:1056E700E21A9001D2E0FBA3E475F002124E16A96C
:1056F700F0FA124E2CACF0AE04FF8035EF5480FF69
:105707003395E04F9001D26015E0FBA3E475F001FB
:10571700124E16A9F0FA124CE9FF7E008013E0FB47
:10572700A3E475F002124E16A9F0FA124E2CFFAE42
:10573700F0E4FCFD9001B01251329001B67408F00C
:105747000259739001D2E0FBA3E475F003124E16E1
:10575700A9F0FA12519BAF01AE02AD037C00900194
:10576700B01251329001BD7408F09001B67410F078
:105777009001B9E04460F00259739001D2E0FBA3B5
:10578700E475F003124E16A9F0FA12519B9001A985
:10579700EBF0A3EAF0A3E9F04A4B700E9001A9746D
:1057A700FFF0A374DDF0A37475F09001BAE0FFC3B6
:1057B700648094804058EF3395E0FE7D009001A906
:1057C700E0FBA3E0FAA3E0F91252119001D5EBF048
:1057D700A3EAF0A3E9F04A4B602A9001A9A3A3E04A
:1057E700FF9001D5A3A3E0C39FFF9001BCF09001F8
:1057F700BAE0FED36480F8EF64809840249001BC3F
:10580700EEF0801D9001BAE09001BCF0801390018A
:10581700A9E0FBA3E0FAA3E0F912DFA49001BCEF33
:10582700F0E49001BEF0025C2C9001B9E04401F075
:105837009001B9E030E0159001D2E0FBA3E475F0E8
:1058470004124E16A9F0FA1250D8805A9001B9E006
:10585700FF30E21A9001D2E0FBA3E475F002124E8A
:1058670016A9F0FA124E2CACF0AE04FF8035EF54B7
:1058770080FF3395E04F9001D26015E0FBA3E475FC
:10588700F001124E16A9F0FA124CE9FF7E008013C0
:10589700E0FBA3E475F002124E16A9F0FA124E2CA3
:1058A700FFAEF0E4FCFD9001B01251329001B674E6
:1058B7000AF00259739001BF74FFF0A374DDF0A3DF
:1058C700747CF09001B9E030E0159001D2E0FBA3C1
:1058D700E475F004124E16A9F0FA1250D8805A90C7
:1058E70001B9E0FF30E21A9001D2E0FBA3E475F0C2
:1058F70002124E16A9F0FA124E2CACF0AE04FF803D
:1059070035EF5480FF3395E04F9001D26015E0FBEF
:10591700A3E475F001124E16A9F0FA124CE9FF7EC6
:10592700008013E0FBA3E475F002124E16A9F0FA0B
:10593700124E2CFFAEF0E4FCFD9001B012513290F4
:1059470001B67410F09001B9E030E320E4FFFEFDEA
:10595700FC9001B0E0F8A3E0F9A3E0FAA3E0FBC3F1
:105967001250A160079001B9E04440F0E49001BEF5
:10597700F09001BAE09001B7F0C3648094804007CB
:105987009001B9E054DFF09001A97401F0A374010C
:10599700F0A374D2F0E4FFFEFDFC9001B0E0F8A3A1
:1059A700E0F9A3E0FAA3E0FBC31250A1700990014C
:1059B700BAE07003025C1D9001B6E0FB3395E0FA94
:1059C700F9F89001B0E0FCA3E0FDA3E0FEA3E0FF3F
:1059D700124FEBAE02AF039001BFE0FBA3E0FAA3C7
:1059E700E0F98F828E83124D02FF9001A9E0FBA39D
:1059F70074FFF5F0124E00A9F0FAEF124D2F900147
:105A0700B0E0FCA3E0FDA3E0FEA3E0FFC007900128
:105A1700B6E0FB3395E0FAF9F8D007124FEB9001A7
:105A2700B01251329001B0E0FCA3E0FDA3E0FEA369
:105A3700E0FFEC4D4E4F60030259BE9001B9E020E4
:105A4700E303025C1D9001B6E0B408289001A9E0C9
:105A5700FBA3E0FAA3E0F9124CE964307003025C9F
:105A67001D9001A9A374FFF5F0124E00A9F0FA7476
:105A770030124D2F025C1D9001A97401F0A374012F
:105A8700F0A374D2F0E4FFFE7D7A7C44A3E0F8A390
:105A9700E0F9A3E0FAA3E0FB1246A4124828E47B4E
:105AA700E87A03F9F8124FEBAC00AD01AE02AF0391
:105AB7009001B0125132E47B0AFAF9F89001B0E094
:105AC700FCA3E0FDA3E0FEA3E0FF124FEBAC00ADAB
:105AD70001AE02AF03E47B05FAF9F8C31250A150F7
:105AE70010E47F01FEFDFCC004C005C006C00780AE
:105AF7000DE4FBFAF9F8C000C001C002C003E47B63
